:020000022000DC
:1060000000000120756302005D6302005F6302000F
:106010006163020063630200656302000000000028
:1060200000000000000000000000000067630200A4
:1060300069630200000000006B6302006D630200F0
:10604000A5B902006F630200A1C9020071D5020068
:10605000E5E702006F6302009DC802006F63020063
:106060006F6302006F6302006F6302006F630200E0
:106070006F6302006F6302006F6302006F630200D0
:106080006F630200058902006F6302006F63020004
:106090006F6302006F630200914403006F630200AC
:1060A0006F6302006F630200D5EE0200EDEE0200A6
:1060B0006F6302006F630200000000000000000038
:1060C0006F6302006F6302006F6302006F63020080
:1060D0006F6302006F6302006F6302000000000044
:1060E00000000000000000000000000000000000B0
:1060F00000000000000000000000000000000000A0
:10610000000000000000000000000000000000008F
:10611000000000000000000000000000000000007F
:10612000000000000000000000000000000000006F
:10613000000000000000000000000000000000005F
:10614000000000000000000000000000000000004F
:10615000000000000000000000000000000000003F
:10616000000000000000000000000000000000002F
:10617000000000000000000000000000000000001F
:10618000000000000000000000000000000000000F
:1061900000000000000000000000000000000000FF
:1061A00000000000000000000000000000000000EF
:1061B00000000000000000000000000000000000DF
:1061C00000000000000000000000000000000000CF
:1061D00000000000000000000000000000000000BF
:1061E00000000000000000000000000000000000AF
:1061F000000000000000000000000000000000009F
:10620000354936480A1A02D0072291438D4634494F
:1062100034480A1A06D00722914381F309880222E2
:1062200082F3148830483149314A00F044F831484B
:106230003149324A00F03FF831483249324A00F0E1
:106240003AF832483249334A00F035F83248334997
:10625000334A00F030F833483349344A00F02BF821
:1062600033483449344A00F026F83448344900228F
:1062700000F02CF833483449002200F027F8334866
:106280003349091A082902DB002202604160314AC1
:1062900090471F481F49884205D00268043003B464
:1062A000904703BCF7E700208646EC46002000211B
:1062B000294A9047FEE7884207D0521A05D0037852
:1062C00001300B700131013AF9D17047884202D098
:1062D00002700130FAE770470000012000E0002062
:1062E000000001200000012034750300D83A00208E
:1062F000AC3B0020D0630200D0630200AC4E030030
:1063000034750300D83A0020D83A0020D04F03005B
:10631000D04F0300D04F0300D04F0300D04F0300F5
:10632000D04F0300D04F0300D04F0300347503005B
:1063300008760300AC3B0020AC3B0020AC3B0020C7
:10634000A0BF0020A0BF0020A0BF0020A0BF002051
:10635000A0DF00209D630200C5FC0200FEE7FEE70F
:10636000FEE7FEE7FEE7FEE7FEE7FEE7FEE7FEE705
:1063700000F002B8FFF7FCBF0F484FF00701884359
:1063800085460E4880470E48016841F4700101605F
:10639000BFF34F8FBFF36F8FFFF732BF09480A4932
:1063A0000A4A884207D0521A05D0037801300B7090
:1063B0000131013AF9D1704700000120D9AD020046
:1063C00088ED00E0D04F0300D83A0020D83A0020F2
:1063D00000B585B00190019B002B0AD0074B43F01C
:1063E00001030393019B9B010293039B029898472F
:1063F00000E000BF05B05DF804FB00BFE04F030004
:1064000000B583B00190019B002B0AD04FF47A7045
:10641000FFF7DEFF019B013B0193019B002BF5D1B0
:1064200000E000BF03B05DF804FB08B50AF004FF0C
:1064300000BF08BD00B589B0039002910192019B95
:10644000002B33D00023079303230693029A079B64
:106450001344019A194600200AF09EFE0590079AFF
:10646000059B13440793019A059BD31A0193059B3F
:10647000002B13D10F4B1B7883F00103DBB2002BF1
:1064800013D10120FFF7BCFF069B013B0693069B3F
:10649000002B03D1074B00221A7007E0054B0122A5
:1064A0001A70019B002BD1D100E000BF00BF09B0E2
:1064B0005DF804FBAC3B002000B585B00390029171
:1064C000054B00934023054A0299039800F012F807
:1064D00000BF05B05DF804FB35640200B03B00204E
:1064E00082B0019000BF02B0704782B0019000BF3F
:1064F00002B0704700B5A1B00590049103920293D9
:10650000049803F057FE039B1593029B16930023F8
:10651000179300238DF8603000231993229B1A9360
:1065200000231F930FA91F9B0822049803F01CFF50
:1065300008231F93119B1293BDF84030ADF84C30E7
:10654000BDF84230ADF84E3000238DF851309DF843
:106550003C3003F00303DBB2012B26D10F9BC3F3C6
:1065600095231C939DF83C30C3F3C203DBB28DF836
:106570005030BDF83C30C3F38313DBB21B931B9B3D
:106580009A0009A91F9B049803F0EEFE1B9B9B0039
:106590001F9A13441F9312AA09A915AB009313461F
:1065A0001B9A1C9800F0CAFE2FE09DF83C3003F0C7
:1065B0000303DBB2022B28D1BDF83E30C3F38913AD
:1065C0009BB21E939DF83C30C3F3C203DBB28DF83F
:1065D00050301E9B082B28BF08231D9307A91F9B23
:1065E0001D9A049803F0C0FE1F9A1D9B13441F932D
:1065F0001E9A1D9BD31A1E9315AB12AA07A81D99AC
:1066000000F03EFF1E9B002BE3D1049803F0E1FD58
:1066100000BF21B05DF804FB82B00190019BDB68F4
:1066200001225A7100BF02B07047000000B583B06C
:106630004FF0FF330193FFF7F8FE0421084800F004
:1066400099FD0190019B002B03DA0649412009F0D6
:1066500037FE0348FFF7E0FF00BF03B05DF804FB1F
:10666000C04F0300F84F030000B583B001900091C4
:10667000019B1B681B6800990198984700BF03B0F5
:106680005DF804FB00B583B00190019B1B685B685B
:106690000198984700BF03B05DF804FB00B583B0D4
:1066A0000190019B1B689B680198984700BF03B04D
:1066B0005DF804FB82B001900B468DF80330019B1E
:1066C000DB689DF803201A7100BF02B0704782B0EA
:1066D0000190019BDB681B79184602B0704782B0BD
:1066E0000190019BDB6801225A7100BF02B0704724
:1066F00082B00190019BDB685B79184602B070475D
:1067000000B585B0019000910C4B01221A700C4825
:1067100003F0B4FC0390039B002B01D0039B08E023
:10672000084803F0DFFE084A084BD31ADB0802933F
:106730000023184605B05DF804FB00BF583D00205B
:106740000C4F030074500300C04F0300204F0300A0
:10675000024A034BD31ADB0818467047C04F0300A8
:10676000204F030000B587B001900B468DF8033031
:106770009DF80330002B1FD0FFF7EAFF04900023A1
:10678000059313E0059B9B000E4A13440393039B60
:106790001B881A46019B1B689A4204D1019B059AEB
:1067A0001A60002309E0059B01330593059A049BB9
:1067B0009A42E7D3052300E00023184607B05DF8AE
:1067C00004FB00BFD83A002000B585B001900B460D
:1067D0008DF803309DF8032001AB11461846FFF7F2
:1067E000C1FF0346002B07D1019BDB00054A134480
:1067F0000393039B1B6800E00023184605B05DF877
:1068000004FB00BF204F030084B001900B468DF8BD
:106810000330019BDB00174A134402939DF80330B9
:10682000013B032B1CD801A252F823F03D68020063
:10683000456802004D6802005768020002238DF887
:106840000F3011E004238DF80F300DE0029B1B790F
:106850008DF80F3008E0029B5B798DF80F3003E074
:1068600000238DF80F3000BF9DF80F30184604B09C
:10687000704700BF204F030084B0019000910023B7
:106880008DF80F30019B1B7803F00403DBB2002B63
:1068900024D0019B1B78C3F30103DBB2012B02D090
:1068A000022B0CD017E0009B1B68019A1288C2F3E0
:1068B0008312D2B213449A1C009B1A600BE0009B17
:1068C0001B68019A5288C2F3891292B213449A1C2F
:1068D000009B1A6000BF01238DF80F309DF80F3028
:1068E000184604B07047000000B58BB00023ADF827
:1068F00026303E4802F0EEF93D4802F0EBF93D4B00
:106900009B6804933C4B1B680693049A069B1340B8
:1069100002339B00374A13440433089304AB1946EF
:106920000898FFF7A9FF0346002B09D0049A069B9D
:10693000134002339B002F4A134404330893EDE7BE
:1069400000BF0023079311E0049B5A1C0492069A8F
:106950001340079A920001A90A44264902339B007A
:106960000B445B681360079B01330793079B012B64
:10697000EAD99DF80430C3F30103DBB2012B10D038
:10698000022B1CD1BDF80A30ADF82630BDF8063018
:10699000C3F389139BB203339A08049B13440493F3
:1069A00013E0BDF80A30ADF82630BDF80430C3F36B
:1069B0008313DBB21A46049B1344049305E00F498A
:1069C0004FF4C27009F07CFC00BF094802F08EF958
:1069D0000590059B002B02D0049B064A9360BDF8EE
:1069E000263018460BB05DF804FB00BF7041002054
:1069F0006C410020583D0020E03A00208450030004
:106A000000B585B00021074802F0D5F80390039B3C
:106A10000293029B83F310030193019B184605B078
:106A20005DF804FB7441002000B589B00390029129
:106A300001920093039B1B0C0793FFF7E1FF069065
:106A4000FFF786FE0246079B934204D3214940F29A
:106A5000A91009F035FC069B1904009B5A1C0A9BDF
:106A60001340079A0A431C4902339B000B445A60A7
:106A7000009A0A9B134002339B00174A13440433C5
:106A80000593039B03F00703D9B2059A137861F3CA
:106A9000C5031370019B03F00F03D9B2059A138845
:106AA00061F389131380029BC3F31501059A1368E0
:106AB00061F39F231360059A1378012161F30103A9
:106AC0001370059A13786FF38203137000BF09B037
:106AD0005DF804FB84500300583D002000B58DB0E4
:106AE0000390029113468DF80730039B02330A93FB
:106AF00001238DF8273000238DF81B300DF11B0387
:106B0000184601F0D3FA404B5A68029B1A603F4B7B
:106B10001A683D4B99683C4B5B68CB1A13440133B0
:106B20000B9314E001213A4802F0A4F8FFF7DCFED1
:106B300007900799364802F09DF8344B1A68324B9B
:106B40009968314B5B68CB1A134401330B930A9A53
:106B50000B9B9A42E6D89DF82730002B48D00023A3
:106B600005939DF80730002B17D09DF814300122B3
:106B700062F301038DF814309DF8143043F00403E0
:106B80008DF81430039B03F00F03DAB2BDF8143014
:106B900062F38913ADF8143016E09DF81430022228
:106BA00062F301038DF814309DF8143043F00403B0
:106BB0008DF81430039BC3F309039AB2BDF8163065
:106BC00062F38F13ADF816300F4B5A680F4B1B68EA
:106BD000134002339B000C4A134404330893059A74
:106BE000089B1A60084B5A680A9B1344064A536074
:106BF0009DF81B30184601F06FFA9DF827301846B3
:106C00000DB05DF804FB00BF583D0020E03A0020C5
:106C10007441002000B58BB005900491039202935B
:106C20001F4B1B68079306AB012219460298FFF71A
:106C300055FF0346002B24D0069B02330993002303
:106C4000089311E0089B9B00039A1A44099B591C66
:106C5000099107990B401268124902339B000B44BB
:106C60005A60089B01330893089A029B9A42E9D321
:106C7000069A079B00931346029A04990598FFF71A
:106C8000D3FE084B1B78002B05D000BF00F068F83E
:106C90000346002BFAD100BF0BB05DF804FB00BF28
:106CA000E03A0020583D002000B583B001900091EB
:106CB0000023002200990198FFF7ACFF00BF03B04A
:106CC0005DF804FB00B587B0039002910192019B2F
:106CD000059305AA012302990398FFF79BFF00BFC4
:106CE00007B05DF804FB00B587B0039002910192F4
:106CF0000093019B0493009B059304AA022302992D
:106D00000398FFF787FF00BF07B05DF804FB00B5ED
:106D10008BB00390029101920093019B0593009B1D
:106D200006930C9B07930D9B08930E9B099305AA52
:106D3000052302990398FFF76DFF00BF0BB05DF8C4
:106D400004FB0000054B9A68044B5B689A420CBF39
:106D500001230023DBB21846704700BF583D0020D6
:106D600000B599B0FFF7EEFF0346002B01D00023DA
:106D7000C0E19B4B0022C3F81824BFF34F8F00BF24
:106D8000974B9B680493974B1B681093049A109B36
:106D9000134002339B00924A13440433119300239F
:106DA00017930023169300230F9304AB19461198F1
:106DB000FFF762FD0346002B19D0894BD3F8183436
:106DC000002B14D1864B5A68049B9A4205D8844BF9
:106DD0005B68834A936000238CE1049A109B134004
:106DE00002339B007E4A134404331193DDE70023F2
:106DF000159311E0049B5A1C0492109A1340159AA3
:106E0000920001A90A44764902339B000B445B6857
:106E10001360159B01331593159B012BEAD99DF83F
:106E2000043003F00303DBB2022B40F09C80BDF87A
:106E30000630C3F389139BB20D93BDF80630C3F33C
:106E400089139BB2502B28BF50239BB20C930C9BF1
:106E5000C3F309039AB2BDF8063062F38F13ADF89D
:106E600006300C9B08330B939DF80430C3F3C20328
:106E7000DBB20F930B995C4803F00BF91790179B4B
:106E8000002B00F0D380179803F094F901A9169B0A
:106E90000822179803F04AFA169B08331693049BAE
:106EA000DA43109B134001339B000A930C9A0A9B10
:106EB0009A4242D90A9B002B08D0049A109B134097
:106EC00002339B00464A1344043300E0474B0893C7
:106ED0000A9B002B02D00A9BDBB201E00C9BDBB2C9
:106EE0008DF81F300A9B002B01D0404B00E000239F
:106EF00006930A9B002B06D00C9BDAB20A9BDBB2EE
:106F0000D31ADBB200E000238DF817309DF81F2064
:106F1000169B0899179803F009FA9DF81F30169AE6
:106F200013441693069B002B16D09DF81720169B32
:106F30000699179803F0FAF90EE0049A109B134093
:106F400002339B00264A134404330993169B0C9A80
:106F50000999179803F0EAF90D9B03339A08049BEB
:106F60001344049362E09DF8043003F00303DBB2A2
:106F7000012B5BD1BDF80430C3F38313DBB2062BC6
:106F800028BF0623DAB2BDF8043062F38913ADF8E6
:106F90000430BDF80430C3F38313DBB202330E9325
:106FA0009DF80430C3F3C203DBB20F930E9B9B002A
:106FB00019460D4803F06DF81790179B002B35D03C
:106FC000179803F0F7F801A9169B0822179803F009
:106FD000ADF9169B08331693002315931DE000BFEF
:106FE000583D0020E03A00200C4F0300643D002093
:106FF000049B5A1C0492109A134002339B003F4A90
:107000001344191D169B0422179803F08FF9169B41
:1070100004331693159B01331593BDF80430C3F365
:107020008313DBB21A46159B9342E1D3179B002BC7
:1070300040D0324BD3F810341493304BD3F818347B
:10704000002B1BD0179803F0C4F84DE000238DF8F7
:107050004F301498FFF74CFB0346002B02D001235E
:107060008DF84F309DF84F30002B03D017991498AE
:10707000FFF7FAFA149BDB681B681493149B002B30
:10708000E4D1179803F0A5F800238DF803300DF133
:107090000303184601F00AF8184BD3F81834002BF4
:1070A00002D1049B154A93609DF80330184601F005
:1070B00013F819E0114BD3F81034129306E012982C
:1070C000FFF7ECFA129BDB681B681293129B002BF4
:1070D000F5D10B4A0B4BD31ADB081B0443F0020318
:1070E00009491846FFF7E0FDFFF72CFE034683F041
:1070F0000103DBB2184619B05DF804FB583D0020CF
:10710000684F0300204F0300F850030000B585B01E
:107110000023039323E0164BD3F81034029301238A
:107120008DF807300FE00298FFF7D1FA03461A46B0
:10713000039B934203D100238DF8073006E0029BA6
:10714000DB681B680293029B002BECD19DF8073093
:10715000002B01D0039B07E0039B01330393039BA8
:10716000092BD8DD4FF0FF33184605B05DF804FB5E
:10717000583D002000B585B001900B468DF80330D6
:10718000FFF7C4FF0390039BB3F1FF3F01D1039BC3
:1071900022E0039BDBB219460198FFF78BFA104BF4
:1071A000D3F81034002B08D10D4A019BC2F81034DB
:1071B000019BDB6800221A600DE0094BD3F8103404
:1071C000DA68019BDB6812681A60054BD3F810344B
:1071D000DB68019A1A60039B184605B05DF804FB52
:1071E000583D002000B583B00C4BD3F81034019308
:1071F0000A4B01221A7009E00198FFF770FA019812
:10720000FFF740FA019BDB681B680193019B002B91
:10721000F2D100BF00BF03B05DF804FB583D002071
:1072200082B00190009100BF02B0704710B584B0E9
:1072300003900291039BDB88002B0AD0039BDB8821
:107240001A461F4B009313461E4A1F49029801F02D
:1072500089FE039B1B7A052B2ED0039B5B7A002BA8
:1072600012D0039B9B881A46039B1B7A1946104633
:10727000FFF7CAFA03461A46144B53F822301A464F
:107280001349029801F06EFE039B1B681946029891
:10729000FFF7C6FF039B1B7A1A460E4B53F822409A
:1072A000039B9B8800211846FFF78EFA034622466F
:1072B0000949029801F056FE00BF04B010BD00BF9E
:1072C0002C5103003C51030074510300F83A002094
:1072D0008C510300E43A00209051030000B585B0C2
:1072E0000390029113468DF80730039B1B7A052B00
:1072F0000FD0039B5B7A002B06D00D4B1B681A4600
:107300000C49029801F02EFE0B49029801F02AFE6A
:1073100007E09DF80730002B03D00749029801F0E1
:1073200021FE029801F0FCFD00BF05B05DF804FBF2
:10733000F83A00208C5103009C51030030B58BB00B
:1073400007900691059204930E9B1B7B8DF82730C6
:107350000E9B00221A730E990498FFF767FF059B96
:10736000062B7FD801A252F823F000BF89730200D8
:1073700093730200A3730200B7730200D573020077
:10738000FD7302002D74020007990E9801F0EAFDCA
:1073900069E0069B1B681A4607990E9801F0E2FD0A
:1073A00061E0069B1A68069B04331B6807990E98D8
:1073B00001F0D8FD57E0069B1A68069B0433196854
:1073C000069B08331B6800930B4607990E9801F043
:1073D000C9FD48E0069B1968069B04331868069BA4
:1073E00008331B68069A0C32126801920093034618
:1073F0000A4607990E9801F0B5FD34E0069B18681F
:10740000069B04331C68069B08331B68069A0C32E3
:10741000126806991031096802910192009323467F
:10742000024607990E9801F09DFD1CE0069B1C6822
:10743000069B04331D68069B08331B68069A0C32B2
:107440001268069910310968069814300068039094
:107450000291019200932B46224607990E9801F063
:1074600081FD00E000BF00220E990498FFF736FF6F
:107470000E9B9DF827201A7300BF0BB030BD00BFD4
:1074800000B587B00390029101920093029B082BF4
:1074900060D8009B1B7B8DF81330009B00221A7371
:1074A00000990198FFF7C2FE0023059314E0059AA6
:1074B000029B9A4209D2039A059B13441B781A46F1
:1074C0002649009801F04EFD03E02549009801F09F
:1074D00049FD059B01330593059B072BE7D92149FE
:1074E000009801F03FFD0023059326E0059A029BDA
:1074F0009A421BD2039A059B13441B788DF81230D5
:107500009DF812307E2B0AD89DF8123018460DF0E7
:107510003BFC0346002B02D09DF8123000E02E23E6
:107520001A461149009801F01DFD03E00F4900982B
:1075300001F018FD059B01330593059B072BD5D959
:10754000012200990198FFF7C9FE009B9DF81320C6
:107550001A7300E000BF07B05DF804FBA051030000
:10756000A8510300AC510300B0510300B451030013
:1075700086B003900291019201238DF817309DF897
:107580001730204A039B13601E4A029B53601D4A1A
:10759000019B9360039B44F20102934212D0039B30
:1075A00044F20202934220D1019B164AD360154B4C
:1075B000DB681B68134A9361124BDB685B68114AF6
:1075C000D36112E0019B0F4A13610E4B1B699B684C
:1075D0000C4A53610B4B1B691B680A4A9361094BA8
:1075E0001B695B68074AD36100BF72B600BF00BF6A
:1075F0009DF81730DBB2002BFAD162B600BF00BF96
:1076000006B070477841002000B583B00290009129
:10761000019244F2010071466A4600F003F803B09B
:1076200000BD00BF30B58BB007900691059272B6D1
:1076300000BFFFF7D7FD00BFFFF792FB0346002B0B
:10764000FAD1079B44F2020293422FD0079B44F2E7
:107650000202934269D8079B44F20102934237D059
:10766000079B44F2010293425FD8079B012B05D090
:10767000079B41F2010293420CD056E0394A3A4B43
:10768000D31ADB081B0443F0010338491846FFF7FF
:107690000BFB57E0334A344BD31ADB081B0443F08F
:1076A000010333491846FFF7FFFA4BE0059B0993A6
:1076B0002C4A2D4BD31ADB081B0443F00100099B15
:1076C0005B681A46099B1B682A49FFF70CFB39E0E7
:1076D000059B0893234A244BD31ADB081B0443F071
:1076E0000104089B9D68089B9B68184603F01AF8E4
:1076F00003461846089B5B681946089B1B68069A58
:1077000002920193009103462A461B492046FFF747
:10771000FEFA144A144BD31ADB081B0443F001038E
:1077200016491846FFF7C0FA0CE00E4A0E4BD31A62
:10773000DB081B0443F00103069A11491846FFF7C2
:10774000C1FA00BF0F4B1B6803F00103002B00D0F0
:1077500000BE059A06990798FFF70AFF00BF0BB015
:1077600030BD00BF684F0300204F030034520300B8
:10777000545203007852030094520300BC52030099
:10778000D0520300F0ED00E02DE9F04383B014483F
:1077900001F09DF8034600221C461546114BD3E923
:1077A000002314EB020845EB0309CDE900890E4BD9
:1077B000D3E90023DDE90001904271EB030307D216
:1077C000DDE9002312F1807643F10007CDE900677F
:1077D000DDE900231046194603B0BDE8F08300BF81
:1077E0001C3B0020A0410020A841002088B001904F
:1077F0000091019B0793009B0693079BD3E902230B
:10780000CDE90423069BD3E90223CDE90223DDE978
:107810000423DDE90201904271EB03032CBF012335
:107820000023DBB2184608B070470000F0B585B001
:107830000190019B5B69002B03D14349A52008F00F
:107840003FFD00238DF80F30404B1B78002B75D087
:10785000019B002B72D0FFF797FF019BD3E9022316
:10786000904271EB030358D300238DF80D300DF1D6
:107870000D03184600F01AFC019B1B69002B06D172
:1078800001994FF0FF324FF0FF33C1E902239DF819
:107890000D30184600F020FC019B5B69019A92694B
:1078A0001046984700238DF80C3003AB184600F0C3
:1078B000FDFB019B1B69002B1AD0019BD3E902231E
:1078C000B3F1FF3F08BFB2F1FF3F11D0019BD3E9F5
:1078D00002230199096900200C460546161943EB5D
:1078E0000507019BC3E9026701238DF80E3002E012
:1078F00000238DF80E309DF80C30184600F0ECFB9C
:107900009DF80E30002B19D0019B1946104802F04B
:1079100063FE01238DF80F3010E0019BD3E90223B1
:10792000B3F1FF3F08BFB2F1FF3F07D0019B1946FB
:10793000074802F051FE01238DF80F309DF80F30FB
:10794000184605B0F0BD00BFF45203009C41002072
:107950006453030030B58BB0019000910D2309935F
:10796000009B00221A70019BD3E90223CDE9062374
:10797000FFF70AFFDDE90623141A63EB0105CDE9E1
:107980000445DDE90423012A73F1000318DB049B9D
:10799000B3F5350F05D300F00BFB0246144B13442F
:1079A00000E0069B03934FF49603039A00211148CD
:1079B00000F080FE0990099B002B05D1012314E003
:1079C00000210C4800F04EFF099B0D2B07D10198B8
:1079D000FFF72CFF03461A46009B1A7004E0064985
:1079E0004FF4867008F06CFC002318460BB030BDD5
:1079F000FFFFB4001C3B0020F452030000B583B02D
:107A0000044802F023FE0190019B184603B05DF884
:107A100004FB00BF6453030000B583B0044802F0C8
:107A200037FE0190019B184603B05DF804FB00BFD0
:107A30006453030000B583B0FFF7E0FF0190019BA2
:107A4000002B06D001994FF0FF324FF0FF33C1E910
:107A50000223019B002BEFD100BF00BF03B05DF8F4
:107A600004FB0000054BD3E9002312F1807043F1C1
:107A70000001024BC3E9000100BF7047A041002094
:107A800010B582B00190124B1B68002B1DD00198DD
:107A900000F01DFF04460021019800F009FF034695
:107AA0001946204600F078FA0346B3F5960F04D342
:107AB000084940F2411008F003FC054B1B681846CA
:107AC000FFF7B4FE024B00221A6000BF02B010BDE7
:107AD00098410020F452030000B583B00190FFF7F5
:107AE00053FE02460B460349C1E9002300BF03B021
:107AF0005DF804FBA841002000B587B00190FFF7B6
:107B00008BFF049000238DF81730049B002B58D076
:107B1000049BD3E90223B3F1FF3F08BFB2F1FF3F5B
:107B200002D1FFF76BFF54E02E4B1B68002B03D1F3
:107B300001238DF817301DE0049BD3E90201294B86
:107B40001B68D3E90223904271EB030312D2012395
:107B50008DF81730234B1B68D3E90223B3F1FF3FA5
:107B600008BFB2F1FF3F05D01E4B1B6819461E48E7
:107B700002F032FD9DF81730002B2BD0FFF73EFFAF
:107B800004900DF10F0319460498FFF7E3FE034636
:107B9000002B12D0134B1B68002B02D1019800F070
:107BA00095FC104A049B13609DF80F3083F001038D
:107BB000DBB2002BA3D000BF0FE00A4B00221A60FB
:107BC0009DE7084B1B68002B06D1019800F094FC40
:107BD00002E094E700BF00E000BF00BF07B05DF81F
:107BE00004FB00BF984100206453030000B587B038
:107BF00001902B4A03AB1946104600F066FF049033
:107C000045E0049B1B78022B2BD0022B2FDC002B92
:107C100002D0012B11D02AE0049B5B68D3E9022338
:107C2000B3F1FF3F08BFB2F1FF3F22D0049B5B6876
:107C300019461C4802F0D0FC1BE0049B5A681A4B02
:107C40001B689A4203D1184B00221A6012E0049B71
:107C50005B681946134802F02FFD03468DF8173074
:107C600008E0FFF7E7FE114B01221A7002E000BFA7
:107C700000E000BF0A4A03AB1946104600F03EFF81
:107C8000074A03AB1946104600F01FFF0490049BFF
:107C9000002BB6D100BF00BF07B05DF804FB00BFEA
:107CA0000842002064530300984100209C410020BA
:107CB00000B583B00190019800F0C7FD0346002B8A
:107CC00001D0FFF7CFFE0021019800F0DCFD034654
:107CD000002B02D00198FFF7D3FE0121019800F09C
:107CE000D2FD0346002B02D00198FFF7F5FE019864
:107CF000FFF77CFF0198FFF7FFFE00BF03B05DF8C0
:107D000004FB000008B5024800F0EEFD00BF08BD0E
:107D10001C3B002000B585B0034600918DF807306C
:107D2000114A02AB1946104600F0A2FE0390039BD5
:107D3000002B13D0039B9DF807201A70039B009A19
:107D40005A60094A02AB1946104600F0AAFE0346E3
:107D5000002B01D0FFF7D6FF002300E004231846D4
:107D600005B05DF804FB00BF0842002000B583B0F9
:107D7000164B1B680093164808235822154900F03B
:107D800044FE0190019B002B01D0019B19E06B4642
:107D9000114A1946114800F01BFB0190019B002B72
:107DA00001D0019B0DE001210C4800F03DFD0123B5
:107DB0000B4A0121094800F0B5FB0A4B01221A7059
:107DC000019B184603B05DF804FB00BF605303003D
:107DD00008420020B0410020B17C02001C3B002082
:107DE000FFFF7F009C41002000B587B003900B4649
:107DF00001928DF80B30039B002B04D1164940F201
:107E00005A2008F05DFA019B002B04D1124940F280
:107E10005B2008F055FA019B002B01D1072317E0E6
:107E2000039B1B68059305994FF0FF324FF0FF331A
:107E3000C1E90223059B019A5A619DF80B30012B81
:107E40000CBF01230023DBB21A46059B1A610023F5
:107E5000184607B05DF804FBF4520300F0B589B092
:107E6000039002910192039B002B04D1264940F21A
:107E70006B2008F025FA039B069300238DF817303A
:107E80000DF11703184600F011F9069BD3E9022300
:107E9000B3F1FF3F08BFB2F1FF3F11D1FFF774FC10
:107EA00002460B46029900200C460546161943EB84
:107EB0000507069BC3E9026701238DF81F3002E026
:107EC00000238DF81F309DF81730184600F004F994
:107ED0009DF81F3083F00103DBB2002B01D000239B
:107EE0000EE0069B019A9A61069B1B69002B02D04B
:107EF000069B029A1A6106990020FFF70BFF0346C2
:107F0000184609B0F0BD00BFF452030000B587B0B9
:107F10000190019B002B04D11E4940F2932008F0F0
:107F2000CFF9019B049300238DF80F300DF10F035F
:107F3000184600F0BBF8049BD3E90223B3F1FF3FDE
:107F400008BFB2F1FF3F03D100238DF8173009E0DD
:107F500004994FF0FF324FF0FF33C1E902230123B0
:107F60008DF817309DF80F30184600F0B5F89DF8E1
:107F7000173083F00103DBB2002B01D0002304E0B3
:107F800004990120FFF7C6FE0346184607B05DF8C6
:107F900004FB00BFF452030082B001900091019AEB
:107FA000009BD31A23F07F43184602B070470000AD
:107FB00008B5034800F08BFC0346184608BD00BF17
:107FC0001C3B002082B0EFF310830093009B0193D1
:107FD00072B600BF019B184602B0704762B600BF80
:107FE00000BF704700B585B00190FFF7EBFF03902D
:107FF000164B9B68002B1BD1144B01229A60144B2B
:10800000D3F88020134B1340104A1360104B114AD1
:10801000C3F880200E4BD3F884300C4A53600C4BCD
:108020004FF0FF32C3F88420019B00221A7002E057
:10803000019B01221A70039B002B01D1FFF7CEFF99
:108040000023184605B05DF804FB00BF1C42002069
:1080500000E100E0FC06FFBD00B585B003468DF8E9
:108060000730104B9B68002B16D09DF80730002B73
:1080700012D1FFF7A7FF03900B4A0A4B1B6813604E
:10808000094A084B5B685360064B00229A60039BC9
:10809000002B01D1FFF7A2FF0023184605B05DF8C1
:1080A00004FB00BF1C42002000E100E000B583B0EB
:1080B000019000F02BF80346012B03D00549432023
:1080C00008F0FEF80198FFF78DFF00BF03B05DF8E0
:1080D00004FB00BF7053030000B583B003468DF866
:1080E000073000F013F80346012B03D00649512056
:1080F00008F0E6F89DF807301846FFF7ADFF00BF1F
:1081000003B05DF804FB00BF7053030084B0EFF3CD
:1081100005830193019BC3F308030393039B002B87
:108120000DD1EFF314830093009B0293029B03F0A5
:108130000103002B0CBF01230023DBB200E001236D
:10814000184604B07047000082B003468DF807302F
:108150009DF90730002B0CDB9DF8073003F01F0260
:1081600005499DF907305B09012000FA02F241F848
:10817000232000BF02B0704700E100E082B0034658
:108180008DF807309DF90730002B0DDB9DF8073087
:1081900003F01F0206499DF907305B09012000FA30
:1081A00002F2403341F8232000BF02B0704700BF05
:1081B00000E100E082B0034600918DF807309DF9A0
:1081C0000730002B0ADB009BDAB20C499DF907301F
:1081D0005201D2B20B4483F800230BE0009BDAB2C9
:1081E00007499DF8073003F00F03043B5201D2B258
:1081F0000B441A7600BF02B0704700BF00E100E0F8
:1082000000ED00E000B583B003460A468DF8073064
:1082100013468DF806309DF80630012B03D99DF8E2
:108220000630032B0BD99DF80630042B03D99DF89B
:108230000630072B03D908496B2008F041F89DF858
:1082400006209DF9073011461846FFF7B3FF00BF1F
:1082500003B05DF804FB00BFE453030000B583B036
:1082600003468DF807309DF907301846FFF76CFF7D
:1082700000BF03B05DF804FB00B585B00190019B21
:10828000002B0AD0074B43F001030393019B9B0192
:108290000293039B0298984700E000BF05B05DF889
:1082A00004FB00BF6055030084B00390029101926B
:1082B000039B029A02F5A872019943F8221000BFAD
:1082C00004B0704782B001900091019B009A02F5C2
:1082D000A87253F82230184602B0704782B001905D
:1082E0000091019B009AC3F8042300BF02B07047BD
:1082F00082B001900091019B009AC3F8082300BF4F
:1083000002B0704782B001900B46ADF80230BDF864
:108310000230019A13441B68184602B0704784B0BB
:1083200001900B46ADF80230BDF80230019A1344BB
:1083300000221A60BDF80230019A13441B680393AF
:10834000039B00BF04B0704782B00190019BD3F83B
:108350000435184602B0704700B583B00190009113
:10836000009BB3F5805F04D306494FF4BE7007F05D
:10837000A7FF019B009AC3F8082500BF03B05DF872
:1083800004FB00BF4054030082B001900B468DF8FF
:1083900003309DF80320019B13441A460123136008
:1083A00000BF02B0704782B001900091019B009A1B
:1083B000C3F8442300BF02B0704782B0019000911F
:1083C000019B009AC3F8482300BF02B07047000029
:1083D00000B587B0039002910192039B002B03D15B
:1083E0003349552007F06CFF029B002B03D1304925
:1083F000562007F065FF019B002B03D12C49572025
:1084000007F05EFF039B5B7919462A4A019B42F8FD
:108410002130039B5B79284ADB0013441B79002B36
:108420000ED008230593254A254BD31ADB081B04DD
:1084300043F0020323491846FEF736FC059B32E061
:10844000039B1A68029B1B8819461046FFF784FF9E
:10845000039B93F90420029B9B7819461046FFF773
:10846000D1FE039B93F904301846FFF7F7FE039BF8
:108470005B79114ADB00134401221A71039B5B797B
:1084800019460D4A039B42F83130002305930B4AED
:108490000B4BD31ADB081B0443F003030A491846AD
:1084A000FEF702FC059B184607B05DF804FB00BF11
:1084B0009C540300284200202C420020784F0300E7
:1084C000204F0300085503002C55030000B583B06E
:1084D0000190019B002B03D10649872007F0F0FE95
:1084E000019B1B6800211846FFF74EFF00BF03B039
:1084F0005DF804FB9C54030000B583B00190019B20
:10850000002B03D106498D2007F0DAFE019B1B6882
:1085100004211846FFF738FF00BF03B05DF804FBE5
:108520009C54030000B587B00390029101928DF82E
:108530000330039B002B03D12149962007F0C0FE96
:108540004FF48032029B02FA03F30593029B5033EF
:108550009BB29B00ADF81230019B23F07F43019347
:10856000039B1B6805991846FFF7C2FE039B1B6817
:1085700005991846FFF721FF039B1B68BDF81220E1
:1085800011461846FFF7CBFE039B1B68019A029920
:108590001846FFF789FE039B1B6805991846FFF7ED
:1085A00002FF9DF80330002B05D0039B1B68059943
:1085B0001846FFF793FE00BF07B05DF804FB00BF4D
:1085C0009C54030000B585B00390029113468DF8CA
:1085D0000730039B002B03D10B49A92007F070FE45
:1085E000039B1B6802991846FFF7DDFE9DF80730D4
:1085F000002B05D0039B1B6802991846FFF76EFEFF
:1086000000BF05B05DF804FB9C54030000B583B0C7
:1086100001900091019B002B03D10A49B32007F080
:108620004FFE019B1B6800991846FFF7C6FE019B91
:108630001B6800991846FFF75BFE00BF03B05DF8AA
:1086400004FB00BF9C54030000B583B001900B46AF
:10865000ADF80230019B002B03D10F49BA2007F07F
:108660002FFE019B1B68BDF8022011461846FFF73C
:1086700049FE0346002B09D0019B1B68BDF8022070
:1086800011461846FFF74BFE012300E00023184671
:1086900003B05DF804FB00BF9C54030082B001905E
:1086A0000091019A009BD31A23F07F43184602B031
:1086B0007047000000B58BB00390029101920093C7
:1086C000039B002B03D15749CD2007F0F9FD4FF450
:1086D0008032029B02FA03F30993029B50339BB250
:1086E0009B00ADF82230019B23F07F430193099951
:1086F0000398FFF78BFF039B1B681846FFF724FEC8
:108700000790039B1B6802991846FFF7DBFD069054
:10871000039B1B68079A02991846FFF7C5FD039B48
:108720001B68BDF8222011461846FFF7F8FD07998F
:108730000698FFF7B3FF0346012B0AD11020FFF77D
:108740009BFD039B1B68BDF8222011461846FFF7CE
:10875000E6FD039B1B681846FFF7F6FD0790079997
:108760000198FFF79BFF0590039B1B68099918462A
:10877000FFF719FE059B012B15D1039B1868019B80
:1087800001331A460299FFF78FFD1020FFF774FDA1
:10879000039B1B681846FFF7D7FD0246079B9342D1
:1087A00035D00D2339E0039B1B68019A02991846C6
:1087B000FFF77AFD039B1B681846FFF7C5FD07907E
:1087C000019B013B07991846FFF768FF0590009B46
:1087D000C3F1FF1303F57F43059A9A4201D90D2394
:1087E0001BE0059B002B12D1039B1868019B0133F2
:1087F0001A460299FFF758FD039B1B681846FFF7BE
:10880000A3FD0246079B934201D00D2305E0012200
:1088100009990398FFF7D6FE002318460BB05DF8C0
:1088200004FB00BF9C54030000B583B001900B46CD
:108830008DF803309DF803301A4602210198FFF7A6
:10884000C1FE00BF03B05DF804FB00B583B001902A
:108850004FF482710198FFF7F7FE0346184603B004
:108860005DF804FB00B583B0019000914FF48032B5
:10887000009B02FA03F319460198FFF7C7FE00BFF9
:1088800003B05DF804FB00B585B001900091009B3A
:1088900050339BB29B00ADF80E30BDF80E30194638
:1088A0000198FFF7D1FE0346184605B05DF804FBBA
:1088B00000B583B001900091019B1B680099184698
:1088C000FFF700FD0346184603B05DF804FB00B552
:1088D00083B00190019B1B681846FFF735FD0346E6
:1088E000184603B05DF804FB00B583B00190019B0E
:1088F00093F904301846FFF741FC00BF03B05DF860
:1089000004FB000008B5044B1B68044A12681046BB
:10891000984700BF08BD00BF284200202C4200201D
:1089200086B001900091019B53E8011F8AB2D8895B
:1089300002449889824228BF121A1889824202BFD3
:10894000BFF32F8F002307E0C2EA010243E80120B2
:108950000028E9D14FF001038DF80F300590029106
:108960000492029A009B1A609DF80F30DBB2184601
:1089700006B0704784B00190019951E8013FC3EA05
:10898000034341E80132002AF7D10392029300BF6A
:1089900004B0704786B001900091019B53E8021F1C
:1089A0001FFAA1F2D888824202BFBFF32F8F0023A3
:1089B0000DE0D88902449889824228BF121AC1EA80
:1089C000024243E802200028E8D14FF001038DF86D
:1089D0000F30059002910492029A009B1A609DF854
:1089E0000F30DBB2184606B0704784B00190019991
:1089F00051E8023FC3EA234341E80232002AF7D19B
:108A00000392029300BF04B0704784B003900291B8
:108A100011461A460B46ADF806301346ADF8043041
:108A2000029B002B01D10E231FE0BDF80630BDF8DC
:108A30000420B3FBF2F101FB02F29B1A9BB2002B64
:108A400001D0092311E0039B029A1A60039B0022C4
:108A50005A60039B00229A60039BBDF806209A810E
:108A6000039BBDF80420DA810023184604B0704748
:108A700000B585B001900091009B19460198FFF761
:108A80004FFF0346002B07D0019B1B68009A1288FA
:108A900013440393039B00E00023184605B05DF8E0
:108AA00004FB00B583B001900091009B1A88009BE5
:108AB0005B889A4204D10198FFF75CFF012300E034
:108AC0000023184603B05DF804FB00B585B00190A3
:108AD0000091009B19460198FFF75CFF0346002BAD
:108AE00007D0019B1B68009A528813440393039B91
:108AF00000E00023184605B05DF804FB00B583B024
:108B000001900091009B1A88009B5B889A4204D1D7
:108B10000198FFF76AFF012300E00023184603B025
:108B20005DF804FB00B585B001900091009B5B09E6
:108B30009B00019A1A44009B03F01F03012101FAD4
:108B400003F31946104600F04DF8039000BF05B03E
:108B50005DF804FB00B585B001900091009B5B09B6
:108B60009B00019A1A44009B03F01F03012101FAA4
:108B700003F3DB431946104600F064F8039000BF8E
:108B800005B05DF804FB82B001900091009B5B0989
:108B90009B00019A13441A68009B03F01F0322FAFA
:108BA00003F303F00103002B14BF01230023DBB206
:108BB000184602B0704710B487B001900091019B35
:108BC000009A53E8004F104643E8000191F0000F6F
:108BD000F7D1059404900391059B184607B05DF802
:108BE000044B704710B487B001900091019B009A2C
:108BF00053E8004F44EA020043E8000191F0000FFF
:108C0000F6D1059404900391049B184607B05DF8D3
:108C1000044B704710B487B001900091019B009AFB
:108C200053E8004F04EA020043E8000191F0000F0E
:108C3000F6D1059404900391059B184607B05DF8A2
:108C4000044B704710B487B001900091019B009ACB
:108C500053E8004F04EA020043E8000191F0000FDE
:108C6000F6D1059404900391049B184607B05DF873
:108C7000044B704710B487B001900091019B009A9B
:108C800053E8004F04EB020043E8000191F0000FAD
:108C9000F6D1059404900391049B184607B05DF843
:108CA000044B704710B487B001900091019B009A6B
:108CB00053E8004FA4EB020043E8000191F0000FDD
:108CC000F6D1059404900391049B184607B05DF813
:108CD000044B704700B583B0019001210198FFF764
:108CE00081FF0346184603B05DF804FB00B583B06E
:108CF000019000210198FFF78DFF0346184603B04D
:108D00005DF804FB00B583B001900B468DF803308D
:108D1000019B002B03D10849E82007F0D1FA019B01
:108D2000DA689DF803300199098A01FB03F31344C3
:108D3000184603B05DF804FB6855030000B583B026
:108D400001900091019B002B03D10849F52007F009
:108D5000B7FA009B019AD2689B1A019A128AB3FB58
:108D6000F2F3DBB2184603B05DF804FB685503006C
:108D700000B585B00190019B002B01D10E234CE082
:108D8000019B1B68002B03D12649FF2007F098FAAE
:108D9000019B5B68002B04D122494FF4807007F0DF
:108DA0008FFA019B9B68002B04D11E4940F20110F1
:108DB00007F086FA019BDB68002B04D119494FF4B8
:108DC000817007F07DFA019B1B8A002B04D11549A5
:108DD00040F2031007F074FA019B9A68019B5B68EC
:108DE000D31A8DF80F30019B1B68019A52681A60E4
:108DF00007E0019B1A681368591C11609DF80F2049
:108E00001A709DF80F305A1E8DF80F20002BF0D1EC
:108E1000019B1B6800221A710023184605B05DF8FB
:108E200004FB00BF6855030000B585B00190019BAD
:108E3000002B04D11F494FF4927007F041FA002330
:108E4000039300238DF80A300DF10A031846FFF74B
:108E50002DF9019B1B681A68019B5B689A421FD918
:108E6000019B1B681A68013A1A601B681B78194637
:108E70000198FFF747FF0390019B9A68019B1B68CD
:108E80001B68D31A8DF80B30019B1B681B799DF86A
:108E90000B209A4204D9019B1B689DF80B201A7184
:108EA0009DF80A301846FFF717F9039B184605B0DE
:108EB0005DF804FB6855030010B584B00190009183
:108EC000019B002B04D1154940F2471007F0F8F937
:108ED000009B002B04D111494FF4A47007F0F0F966
:108EE000009B039300238DF80B300DF10B03184604
:108EF000FFF7DCF8019B1B681C68621C1A60039971
:108F00000198FFF71BFF034623709DF80B301846AE
:108F1000FFF7E2F800BF04B010BD00BF68550300C2
:108F200000B583B00190019B002B03D10C49312087
:108F300007F0C6F9019B9B68002B0CD0019B5B6975
:108F4000019A1069019A1168019A92689847019BE9
:108F500000229A6000E000BF03B05DF804FB00BF90
:108F6000D85503000EB400B584B00190019B002BCE
:108F700003D11849422007F0A3F9019B5B69002B3C
:108F800003D11449432007F09BF9019B1B68002B78
:108F900003D11049442007F093F9019B5B68002B33
:108FA00003D10C49452007F08BF9059B002B0AD013
:108FB0000023039306AB039303AB1A46059901986C
:108FC00000F010FE00E000BF04B05DF804EB03B059
:108FD000704700BFD855030000B583B001900B4621
:108FE0008DF803309DF803300A2B03D10D21019831
:108FF000FFF7F2FF019B1A68019B9B68581C0199BF
:10900000886013449DF803201A70019B9A68019BA5
:109010005B689A4202D30198FFF782FF00BF03B05A
:109020005DF804FB00B587B00390029101920093B4
:1090300000230593009B03F00103002B24D00BE0D9
:10904000029B01330293059B013305939DF8133076
:1090500019460398FFF7C0FF029B1B788DF8133069
:109060009DF81330002BEBD106E0019B013B0193EF
:1090700020210398FFF7B0FF019A059B9A422ED951
:10908000019B002BF1D12AE0029B002B0BD0029810
:109090000BF0DBFE059006E0019B013B01932021D4
:1090A0000398FFF799FF019A059B9A420FD9019BFC
:1090B000002BF1D10BE0029B01330293059B01339E
:1090C00005939DF8133019460398FFF785FF029B1F
:1090D0001B788DF813309DF81330002BEBD100BFB7
:1090E00007B05DF804FB000000B589B00390029161
:1090F00001920093029B07930123069307E0079ACE
:10910000019BB2FBF3F30793069B01330693079A87
:10911000019B9A42F3D2009A069B9A4201D9009B86
:1091200006930B9B03F00103002B22D10A9B002B1B
:109130001FD00B9B03F00203002B06D0009B002BDB
:1091400003D130238DF8173002E020238DF817303B
:1091500008E00A9B013B0A939DF8173019460398D3
:10916000FFF73AFF0A9B002B03D0069A0A9B9A420C
:10917000EFD301230793009B012B03D9009B013BF5
:10918000009309E0029A079BB2FBF3F30493049A5D
:10919000019B9A4200D205E0079B019A02FB03F370
:1091A0000793E8E7029A079BB2FBF3F30493049B4F
:1091B000079A02FB03F3029AD31A0293154A049BFF
:1091C00013441B7819460398FFF706FF079A019B83
:1091D000B2FBF3F30793079B002BE3D10B9B03F048
:1091E0000103002B11D00A9B002B0ED006E00A9B36
:1091F000013B0A9320210398FFF7EEFE0A9B002B08
:1092000003D0069A0A9B9A42F1D300BF09B05DF8D9
:1092100004FB00BFA856030000B589B00590049177
:1092200003920293049B002BB8BF5B420693012379
:10923000079307E0039B069A92FBF3F30693079BC1
:1092400001330793039B069A9A42F3DA029A079B2B
:109250009A4201D9029B07930A9B002B0AD0049BD8
:10926000002B04DB0B9B03F00403002B02D00A9BB2
:10927000013B0A930B9B03F00203002B02D0029BDD
:10928000002B16D00B9B03F00103002B11D10A9B7E
:10929000002B0ED006E00A9B013B0A932021059883
:1092A000FFF79AFE0A9B002B03D0079A0A9B9A426B
:1092B000F1D3049B002B07DA049B5B4204932D211E
:1092C0000598FFF789FE08E00B9B03F00403002BD1
:1092D00003D02B210598FFF77FFE0B9B03F00203C1
:1092E000002B19D00B9B03F00103002B14D1029B20
:1092F000002B11D10A9B002B0ED006E00A9B013BEC
:109300000A9330210598FFF767FE0A9B002B03D0D4
:10931000079A0A9B9A42F1D304990B9B01930A9BEB
:109320000093029B039A0598FFF7DEFE00BF09B089
:109330005DF804FB00B583B001900B468DF8033057
:1093400013468DF8023011E09DF80230002B04D056
:1093500030210198FFF740FE03E020210198FFF73C
:109360003BFE9DF80330013B8DF803309DF8033040
:10937000002BE9D100BF00BF03B05DF804FB000083
:109380002DE9F04FE1B03D908DED3A0B3C913992D3
:10939000389300238DF87F3100238DF84731002367
:1093A0008DF846313C9B002B04D03C9BDBB2013353
:1093B000DBB200E007238DF84531DDE93A014FF0DB
:1093C00000024FF000030BF0E7FB0346002B18D020
:1093D000DDE93A014FF00002AC4B0BF0F9FB03461C
:1093E000002B0ED0DDE93A014FF00002A74B0BF045
:1093F000ADFA02460B46CDE93A2301238DF87F31C1
:1094000022E0DDE93A014FF00002A14B0BF0C4FB72
:109410000346002B18D0DDE93A014FF000024FF06F
:1094200000030BF0D5FB0346002B0DD0DDE93A011C
:109430004FF00002954B0BF0ABFB02460B46CDE91B
:109440003A2301238DF87F31DDE93A23CDE93E232C
:10945000DDE93E23DB0F8DF84231DDE93E234FF09D
:1094600000004FF00001180D00210346C3F30A036A
:109470004F93DDE93E231446C3F31305CDE95C4564
:109480004F9A40F2FF739A4272D1399B002B1DD044
:10949000389B03F00103002B18D1399BDAB29DF9F8
:1094A0004211389B03F00403002B14BF0123002357
:1094B000DBB25BB20B435BB2DBB2D31ADBB2033B72
:1094C000DBB2002219463D98FFF734FF9DF8423188
:1094D000002B04D02D213D98FFF77EFD08E0389B3E
:1094E00003F00403002B03D02B213D98FFF774FDFC
:1094F000DDE95C2313431DD09DF8A831002B0CD06F
:109500004E213D98FFF768FD41213D98FFF764FD2E
:109510004E213D98FFF760FD61E36E213D98FFF716
:109520005BFD61213D98FFF757FD6E213D98FFF7E8
:1095300053FD54E39DF8A831002B0CD049213D98F0
:10954000FFF74AFD4E213D98FFF746FD46213D9825
:10955000FFF742FD43E369213D98FFF73DFD6E2192
:109560003D98FFF739FD66213D98FFF735FD36E35D
:10957000DDE95C23134302D14F9B002B09D0DDE9C9
:109580005C231C9243F480131D93DDE91C34CDE968
:109590005C344F9BA3F2FF334F934F9BDBB2C3F17D
:1095A00034038DF83B319DF83B31402B00F216839C
:1095B0009DF83B41DDE95C23C4F12001A4F12000CA
:1095C00022FA04F803FA01F148EA010823FA00F04C
:1095D00048EA000823FA04F9CDE95A899DF83B418D
:1095E000DDE95A23A4F12001C4F1200003FA04F7B5
:1095F00002FA01F10F4322FA00F0074302FA04F6DF
:10960000F3430E93FB430F93DDE95C23DDE90E4545
:10961000214611401E91294619401F91DDE91E3453
:10962000CDE9583410E0DDE958234FF000004FF049
:109630000001500840EAC3705908CDE958019DF86F
:10964000463101338DF84631DDE9582302F001033C
:10965000109300231193DDE910120B46134303D13D
:10966000DDE958231343DED19DF83B219DF84631B7
:10967000D31A8DF83A314FF001024FF00003CDE9D3
:10968000562300238DF8443125E000BF0000F03F51
:109690000000F0BFDDE9564522462B464FF00000A2
:1096A0004FF00001990041EA9271900002460B468A
:1096B00012EB040A43EB050B1AEB0A0320934BEB66
:1096C0000B032193DDE920ABCDE956AB9DF8443186
:1096D00001338DF844319DF844219DF845319A427B
:1096E000D8D3DDE95823129200231393DDE95623E2
:1096F000149200231593DDE912452B46DDE914672A
:10970000324602FB03F23B46214601FB03F31344BE
:1097100022463146A2FB01120D920A460C920D9A86
:1097200013440D93DDE90C34CDE94C34CDE94C34D0
:10973000DDE94C23229200232393DDE92234CDE995
:109740004A34DDE958234FF000004FF000011800C3
:109750000021DDE95623169200231793DDE9164513
:10976000234603FB01F22B4600FB03F3134422467E
:10977000A0FB021207920A460692079A1344079327
:10978000DDE94C234FF000004FF0000118000021EC
:10979000DDE9064523461B1824932B4641EB0303C2
:1097A0002593DDE92434CDE94C34DDE94C232692C0
:1097B00000232793DDE92634CDE94834DDE94C2345
:1097C0004FF000004FF0000118000021CDE94601E4
:1097D000DDE95823189200231993DDE956234FF051
:1097E00000004FF0000118000021DDE918452B466C
:1097F00000FB03F2234603FB01F313442246A2FBC2
:10980000001209920A460892099A13440993DDE965
:109810004823DDE90845214651182891294643EBA4
:1098200001012991DDE92834CDE94C34DDE94C23EF
:109830002A9200232B93DDE92A34CDE94834DDE96F
:1098400058234FF000044FF000051C000025DDE90F
:1098500056234FF000004FF000011800002100FBDC
:1098600005F204FB01F31344A4FB00120B920A4619
:109870000A920B9A13440B93DDE94623DDE90A456E
:10988000214689181A91294643EB01011B91DDE914
:109890004C234FF000004FF0000118000021DDE9DB
:1098A0001A4523461B182C932B4641EB03032D939B
:1098B000DDE92C34CDE94C34DDE94C232E92002334
:1098C0002F93DDE92E34CDE94634DDE94C014FF02C
:1098D00000024FF000030A000023CDE94423DDE934
:1098E00048234FF000004FF0000111000020DDE997
:1098F0004A2342EA000430940B433193DDE93034CB
:10990000CDE95434DDE944014FF000024FF000038B
:1099100003000022DDE9460140EA020432940B43D1
:109920003393DDE93234CDE942349DF83A31C3F165
:109930004001DDE94223A1F12004C1F1200003FA36
:1099400001F5039502FA04F4039D2543039522FAD9
:1099500000F0039C0443039402FA01F30293DDE94F
:109960000234CDE942349DF83A11DDE95423C1F1C6
:109970002004A1F1200022FA01F5049503FA04F471
:10998000049D2543049523FA00F0049C04430494A9
:10999000CB400593DDE90434CDE95434DDE95401CD
:1099A000DDE9422340EA020434940B433593DDE9B8
:1099B0003434CDE95234DDE952014FF00A024FF060
:1099C00000030BF021F9052A73F1000317D3DDE939
:1099D00052014FF00A024FF000030BF015F9024656
:1099E0000B46CDE95223DDE95223511C369143F158
:1099F00000033793DDE93634CDE952340BE0DDE97D
:109A000052014FF00A024FF000030BF0FDF802463E
:109A10000B46CDE952239DF84531013B8DF8453188
:109A20009DF87F31002B0AD0DDE95A23511E0B43EC
:109A300005D14FF000024FF00003CDE95A239DF805
:109A400045310A2B1DD99DF845310A3B8DF843312C
:109A500010E0DDE952014FF00A024FF000030BF075
:109A6000D3F802460B46CDE952239DF84331013B22
:109A70008DF843319DF84331002BEAD10A238DF84C
:109A80004531DDE95A23CDE9542310E0DDE95401E5
:109A90004FF00A024FF000030BF0B6F802460B46F7
:109AA000CDE954239DF8473101338DF84731DDE985
:109AB00054231343EAD1DDE95A23134306D1DDE9E8
:109AC0005223134302D101238DF847319DF84731CA
:109AD000002B02D101238DF84731399B002B2AD06E
:109AE000389B03F00103002B25D19DF84731399AAB
:109AF000D21A9DF84531D31A9DF84221389901F0C8
:109B00000401002914BF01210021C9B20A439B1A94
:109B1000013B4193419B002B0DDD419BD9B2389B0A
:109B200003F00203002B14BF01230023DBB21A460B
:109B30003D98FFF7FFFB9DF84231002B04D02D210B
:109B40003D98FFF749FA08E0389B03F00403002B27
:109B500003D02B213D98FFF73FFA5A990023019338
:109B60000023009300230A223D98FFF755FB2E2186
:109B70003D98FFF731FA52999DF845310022019244
:109B8000002200920A223D98FFF746FB399B002BEA
:109B900025D0389B03F00103002B20D09DF84731DE
:109BA000399AD21A9DF84531D31A9DF84221389935
:109BB00001F00401002914BF01210021C9B20A43A8
:109BC0009B1A013B4093409B002B08DD409BDBB27E
:109BD000002219463D98FFF7ADFB00E000BF61B0E1
:109BE000BDE8F08F00B593B0059004910392059BFA
:109BF000002B04D1BF4940F2522006F061FB059BC7
:109C00005B69002B04D1BB494FF4157006F058FB7B
:109C1000059B1B68002B04D1B64940F2552006F085
:109C20004FFB059B5B68002B04D1B24940F25620E4
:109C300006F046FB049B002B00F01C82049B1B7863
:109C40008DF84730049B013304939DF84730002B77
:109C500000F007829DF84730252B40F0F681002365
:109C60000E9301231093049B1B788DF847309DF8C9
:109C70004730302B0DD0302B1BDC2B2B11D02D2B54
:109C800017D10E9B43F001030E93049B0133049301
:109C900012E00E9B43F002030E93049B01330493E6
:109CA0000AE00E9B43F004030E93049B01330493DC
:109CB00002E00023109300BF109B002BD3D10023A0
:109CC0000D939DF847302A2B0CD1039B1B68191D5F
:109CD000039A11601B680D9A13440D93049B013382
:109CE00004931AE0049B1B788DF847309DF84730A9
:109CF0002F2B12D99DF84730392B0ED8049B0133F6
:109D000004930D9A13469B0013445B001A469DF87A
:109D100047301344303B0D93D3E700230F93049B4C
:109D20001B788DF847309DF847302E2B1DD1049BB2
:109D300001330493049B1B788DF847309DF847301E
:109D40002F2B12D99DF84730392B0ED8049B0133A5
:109D500004930F9A13469B0013445B001A469DF828
:109D600047301344303B0F93E4E7049B1B788DF896
:109D700047309DF847306C2B03D09DF84730682B57
:109D800007D1049B01330493049B1B788DF8473063
:109D9000EFE79DF84730253B532B00F2518101A29C
:109DA00052F823F0D79F020041A0020041A0020018
:109DB00041A0020041A0020041A0020041A0020017
:109DC00041A0020041A0020041A0020041A0020007
:109DD00041A0020041A0020041A0020041A00200F7
:109DE00041A0020041A0020041A0020041A00200E7
:109DF00041A0020041A0020041A0020041A00200D7
:109E000041A0020041A0020041A0020041A00200C6
:109E100041A0020041A0020041A0020041A00200B6
:109E200041A0020041A0020011A0020041A00200D6
:109E300041A0020041A0020041A0020041A0020096
:109E400041A0020041A0020041A0020041A0020086
:109E500041A0020041A0020041A0020041A0020076
:109E600041A0020041A0020041A0020041A0020066
:109E7000639F020041A0020041A0020041A0020035
:109E800041A0020041A0020041A0020041A0020046
:109E900041A0020041A0020041A00200F99E020080
:109EA0001B9F020041A00200E19F020041A00200AE
:109EB00041A002001B9F020041A0020041A002003D
:109EC00041A0020041A0020041A0020041A0020006
:109ED000A39F020041A0020041A00200879F020050
:109EE00041A002003F9F020041A0020041A00200E9
:109EF000639F02003C560300039B1B68191D039AD5
:109F000011601B681093109B8DF827309DF8273047
:109F100019460598FFF760F893E0039B1B68191D2D
:109F2000039A11601B6810930E9B01930D9B009385
:109F30000F9B0A2210990598FFF76EF981E0039BA9
:109F40001B68191D039A11601B68109310990E9BD2
:109F500001930D9B00930F9B0A220598FFF7C4F80D
:109F60006FE0039B1B68191D039A11601B68109317
:109F700010990E9B01930D9B00930F9B1022059847
:109F8000FFF7B2F85DE0039B1B68191D039A11608F
:109F90001B680C930E9B0D9A0C990598FFF742F8DD
:109FA0004FE0039B1B68191D039A11601B681093F7
:109FB00030210598FFF710F878210598FFF70CF885
:109FC0001099002301930823009308231022059879
:109FD000FFF78AF835E025210598FEF7FDFF30E010
:109FE000039B1B68073323F0070303F10801039A5F
:109FF0001160D3E90023CDE90A23002300930E9BCF
:10A000000D9A0F999DED0A0B0598FFF7B9F918E025
:10A01000039B1B68073323F0070303F10801039A2E
:10A020001160D3E90023CDE90623012300930E9BA1
:10A030000D9A0F999DED060B0598FFF7A1F900E029
:10A0400000BF049B0133049305E09DF84730194697
:10A050000598FEF7C1FF049B1B78002B7FF4EEAD43
:10A0600000E000BF059B1B7B002B04D00598FEF78A
:10A0700057FF00E000BF13B05DF804FB00B583B0EC
:10A0800001900198FEF774FE0346184603B05DF890
:10A0900004FB00B58BB001900091019B1B8A043B2F
:10A0A0000793009A079B1344DA1C079BB2FBF3F358
:10A0B0008DF81B300198FEF7B7FE0590059B002B2D
:10A0C00001D1002338E0059B00221A71059B012273
:10A0D0005A71079B9AB2059BDA80059B09939DF8FC
:10A0E0001B30013B0493099B019A1A6000230893DB
:10A0F0001DE00198FEF798FE0390039B002B0ED005
:10A10000059B5B790133DAB2059B5A71099B039A6F
:10A110001A60039B019A1A60039B099304E0059857
:10A1200000F00EF8002307E0089B01330893089A1B
:10A13000049B9A42DDD3059B18460BB05DF804FBE7
:10A1400000B58BB00190019B0793079B5B798DF85D
:10A150001B30019B08939DF81B30013B05930023A6
:10A16000099305E0089B1B680893099B0133099339
:10A17000099A059B9A42F5D3089B1B680493019B9F
:10A180000893002309930BE0089B1B68039308992D
:10A190000498FEF791FE039B0893099B01330993F2
:10A1A0009DF81B30099A9A42EED300BF00BF0BB056
:10A1B0005DF804FB00B585B00190019B0393039B00
:10A1C000043301211846FEF755FD00BF05B05DF8C8
:10A1D00004FB00B587B00190019B0593059B0433F8
:10A1E00001211846FEF75EFD0346039303AB04937B
:10A1F000049B1B78002B02D10198FFF7A1FF00BF41
:10A2000007B05DF804FB000000B591B00390029127
:10A2100001920093039B002B03D14349B62006F023
:10A220004FF8039B0993039B0F93099BDB881A4606
:10A23000099B5B7902FB03F3043B0893009A089B9C
:10A240009A4203D33849C42006F03AF8099BDB88C8
:10A250000793009B1A1D079BB2FBF3F30E93009B21
:10A260000433079AB3FBF2F2079901FB02F29B1A3F
:10A270000D93019B1A68009B1344089A9A4203D2DB
:10A28000089A009BD31A01E0019B1B680C93019B69
:10A290000C9A1A6005E00F9B1B680F930E9B013B05
:10A2A0000E930E9B002BF6D100230B93079A0D9B68
:10A2B000D31A0A930A9A0C9B934228BF13460A9317
:10A2C0002AE0029A0B9B134406930F9A0D9B1344AA
:10A2D000043305939DF84830002B05D00A9A059960
:10A2E00006980AF056FD04E00A9A069905980AF0C5
:10A2F00050FD00230D930F9B1B680F930C9A0A9B34
:10A30000D31A0C930B9A0A9B13440B93079A0C9B3A
:10A31000934228BF13460A930C9B002BD1D100BF58
:10A3200000BF11B05DF804FBB856030000B589B05A
:10A330000590049103920293039B079307AA0023BD
:10A340000093029B04990598FFF75EFF079B039A11
:10A350009A4203D00349F62005F0B2FF00BF09B0CE
:10A360005DF804FBB856030000B589B00590049170
:10A3700003920293039B079307AA01230093029B76
:10A3800004990598FFF740FF079B039A9A4204D06F
:10A3900004494FF4807005F093FF00BF09B05DF8E9
:10A3A00004FB00BFB856030082B003468DF80730A7
:10A3B0009DF90730002B0DDB9DF8073003F01F02DD
:10A3C00006499DF907305B09012000FA02F260336B
:10A3D00041F8232000BF02B0704700BF00E100E059
:10A3E00000B583B00190019B002B03D10649722078
:10A3F00005F066FF019B00221A60BFF35F8F00BF6C
:10A4000000BF03B05DF804FBAC57030041DF7047A9
:10A4100000BF184600B585B000238DF807300DF158
:10A4200007031846FDF742FEF1EE103A0393039B33
:10A4300023F09F030293029BE1EE103A00BFBFF3AB
:10A440005F8F00BF2620FFF7AFFF9DF8073018464B
:10A45000FDF742FE039B03F00703002B03D00449E2
:10A460007D2005F02DFF00BF05B05DF804FB00BFA7
:10A470001C58030008B5064B00221A700548FFF768
:10A48000AFFF0549054800F04BF80023184608BD0A
:10A490003842002034420020905803003C42002003
:10A4A00000B583B0FFF7B6FF09F0C4FF0346002BE9
:10A4B0000ED0FFF7ABFF0190019B002B0BD0019B4F
:10A4C000022B08D006494FF4B07005F0F9FE02E007
:10A4D00020BF40BF20BF00BF03B05DF804FB00BF3A
:10A4E0001C58030082B00190019B9B6800229A6077
:10A4F000019B9B6800221A61019B9B6800225A61A4
:10A50000019B9B680022DA60019B9B6800225A60D5
:10A51000019B9B6800221A6000BF02B070470000D8
:10A5200000B583B001900091019B002B03D110492D
:10A53000502005F0C5FE009B002B03D10C49512093
:10A5400005F0BEFE019B009A1A60019B1B681A6809
:10A55000019B5A60019B5A68019B1B685B689A4289
:10A5600002D1019B00225A6000BF03B05DF804FBDA
:10A570009C58030000B583B00190019B002B03D1D0
:10A580001449632005F09CFE019B1B68002B03D13E
:10A590001049642005F094FE019B5B68002B14D0E9
:10A5A000019B5B681A46019B1B689B6813441A4613
:10A5B000019B5A60019B5A68019B1B685B689A4229
:10A5C00004D1019B00225A6000E000BF03B05DF897
:10A5D00004FB00BF9C58030000B585B001900091BA
:10A5E000019B002B03D118493A2005F069FE009B1E
:10A5F000002B03D114493B2005F062FE019B5B68F0
:10A6000003930FE0019B9B68039A12680099104620
:10A610009847034683F00103DBB2002B07D1039B6D
:10A620001B680393039B1B68002BEBD100E000BF6A
:10A63000039B1A68009B1A60039B009A1A6000BF74
:10A6400005B05DF804FB00BF3059030000B585B0CC
:10A650000190019B002B03D10C49512005F030FEE5
:10A66000019B5B681B680393019B5B681B68002B65
:10A6700006D0019B5B681A68019B5B6812681A60D0
:10A68000039B184605B05DF804FB00BF305903007A
:10A6900000B583B00190019B002B03D105495D20DB
:10A6A00005F00EFE019B5B681B68184603B05DF861
:10A6B00004FB00BF3059030000B585B00190009144
:10A6C000019B002B03D11649692005F0F9FD009B81
:10A6D000002B03D112496A2005F0F2FD00238DF80A
:10A6E0000B30019B5B6803930FE0039B1B68009A90
:10A6F0009A4207D1009B1A68039B1A6001238DF8C8
:10A700000B3006E0039B1B680393039B1B68002B25
:10A71000EBD19DF80B30184605B05DF804FB00BF87
:10A720003059030000B585B00190019800F00EF893
:10A730000390039B002B01D0039B00E0024B1846C3
:10A7400005B05DF804FB00BFA459030086B001907A
:10A75000164B0593164B04931FE0049A059BD31ADE
:10A76000DB10DA0F13445B10DB00059A13440393EC
:10A77000039B1B680293029A019B9A4202D9039B96
:10A7800004930AE0029A019B9A4203D2039B083386
:10A79000059302E0039B5B6804E0059A049B9A42E0
:10A7A000DBD30023184606B0704700BFA45D03004A
:10A7B000CC5E0300BFF34F8F00BF064BDB6803F492
:10A7C000E0620449044B1343CB60BFF34F8F00BFDB
:10A7D00000BFFDE700ED00E00400FA0582B01D4B6C
:10A7E0001B68B3F1FF3F0AD11B4B1B68DBB201931F
:10A7F0001A4B1B681B0903F00F03009305E0154B70
:10A800001B680193164B1B680093019B062B1DD1FF
:10A81000009B033B042B17D801A252F823F000BF82
:10A8200035A8020039A802003DA8020041A8020094
:10A8300045A8020001230AE0012308E0012306E005
:10A84000012304E0012302E0012300E00023184675
:10A8500002B0704730010010E00F00F0E80F00F088
:10A860003401001082B0174B1B68DBB20193164B0A
:10A870001B681B0903F00F030093019B062B1DD1DE
:10A88000009B033B042B17D801A252F823F000BF12
:10A89000A5A80200A9A80200ADA80200B1A8020064
:10A8A000B5A8020001230AE0002308E0002306E027
:10A8B000002304E0002302E0002300E00023184608
:10A8C00002B07047E00F00F0E80F00F082B01D4BBF
:10A8D0001B68B3F1FF3F0AD11B4B1B68DBB201932E
:10A8E0001A4B1B681B0903F00F03009305E0154B7F
:10A8F0001B680193164B1B680093019B062B1DD10F
:10A90000009B033B042B17D801A252F823F000BF91
:10A9100025A9020029A902002DA9020031A90200DF
:10A9200035A9020001230AE0012308E0012306E023
:10A93000012304E0012302E0012300E00023184684
:10A9400002B0704730010010E00F00F0E80F00F097
:10A950003401001082B0174B1B68DBB20193164B19
:10A960001B681B0903F00F030093019B062B1DD1ED
:10A97000009B033B042B17D801A252F823F000BF21
:10A9800095A9020099A902009DA90200A1A90200AF
:10A99000A5A9020001230AE0002308E0002306E045
:10A9A000002304E0002302E0002300E00023184617
:10A9B00002B07047E00F00F0E80F00F082B01D4BCE
:10A9C0001B68B3F1FF3F0AD11B4B1B68DBB201933D
:10A9D0001A4B1B681B0903F00F03009305E0154B8E
:10A9E0001B680193164B1B680093019B062B1DD11E
:10A9F000009B033B042B17D801A252F823F000BFA1
:10AA000015AA020019AA02001DAA020021AA02002A
:10AA100025AA020001230AE0012308E0012306E041
:10AA2000012304E0012302E0012300E00023184693
:10AA300002B0704730010010E00F00F0E80F00F0A6
:10AA40003401001082B0174B1B68DBB20193164B28
:10AA50001B681B0903F00F030093019B062B1DD1FC
:10AA6000009B033B042B17D801A252F823F000BF30
:10AA700085AA020089AA02008DAA020091AA0200FA
:10AA800095AA020001230AE0002308E0002306E063
:10AA9000002304E0002302E0002300E00023184626
:10AAA00002B07047E00F00F0E80F00F082B0174BE3
:10AAB0001B68DBB20193164B1B681B0903F00F03E5
:10AAC0000093019B062B1DD1009B033B042B17D841
:10AAD00001A252F823F000BFEDAA0200F1AA020081
:10AAE000F5AA0200F9AA0200FDAA020001230AE069
:10AAF000002308E0002306E0002304E0002302E036
:10AB0000002300E00023184602B07047E00F00F079
:10AB1000E80F00F082B01D4B1B68B3F1FF3F0AD174
:10AB20001B4B1B68DBB201931A4B1B681B0903F01C
:10AB30000F03009305E0154B1B680193164B1B6830
:10AB40000093019B062B1DD1009B033B042B17D8C0
:10AB500001A252F823F000BF6DAB020071AB0200FE
:10AB600075AB020079AB02007DAB020000230AE066
:10AB7000002308E0012306E0012304E0012302E0B2
:10AB8000012300E00023184602B070473001001096
:10AB9000E00F00F0E80F00F03401001082B01D4B10
:10ABA0001B68B3F1FF3F0AD11B4B1B68DBB201935B
:10ABB0001A4B1B681B0903F00F03009305E0154BAC
:10ABC0001B680193164B1B680093019B062B1DD13C
:10ABD000009B033B042B17D801A252F823F000BFBF
:10ABE000F5AB0200F9AB0200FDAB020001AC0200C4
:10ABF00005AC020001230AE0012308E0012306E07E
:10AC0000012304E0012302E0012300E000231846B1
:10AC100002B0704730010010E00F00F0E80F00F0C4
:10AC20003401001082B01D4B1B68B3F1FF3F0AD105
:10AC30001B4B1B68DBB201931A4B1B681B0903F00B
:10AC40000F03009305E0154B1B680193164B1B681F
:10AC50000093019B062B1DD1009B033B042B17D8AF
:10AC600001A252F823F000BF7DAC020081AC0200CB
:10AC700085AC020089AC02008DAC020001230AE021
:10AC8000012308E0012306E0012304E0012302E0A0
:10AC9000012300E00023184602B070473001001085
:10ACA000E00F00F0E80F00F03401001082B0154B07
:10ACB0001B680193144B1B680093019B062B1DD14D
:10ACC000009B033B042B17D801A252F823F000BFCE
:10ACD000E5AC0200E9AC0200EDAC0200F1AC020010
:10ACE000F5AC020000230AE0002308E0002306E0A0
:10ACF000012304E0012302E0012300E000231846C1
:10AD000002B07047300100103401001082B0154BC2
:10AD10001B680193144B1B680093019B062B1DD1EC
:10AD2000009B033B042B17D801A252F823F000BF6D
:10AD300045AD020049AD02004DAD020051AD02002B
:10AD400055AD020000230AE0002308E0002306E0DE
:10AD5000002304E0012302E0012300E00023184661
:10AD600002B07047300100103401001008B5FFF741
:10AD7000CDFF0346002B07D04FF010234FF0804249
:10AD8000D3F80832C2F8583500BF08BD00BF044BE5
:10AD9000D3F80034002BFAD000BF00BF704700BFCB
:10ADA00000E0014000B583B00190054A019BC2F864
:10ADB0000435FFF7EBFF00BF03B05DF804FB00BFF5
:10ADC00000E00140024B034A1A6000BF704700BF19
:10ADD000243B00200090D00308B5FFF7FFFC03469A
:10ADE000002B06D0A44B1B681B0AA44A03F01F03C8
:10ADF0001360FFF737FD0346002B02D0A04BA14A9A
:10AE00001A60FFF763FD0346002B06D09E4B1B68BC
:10AE10005B0B9E4A03F007031360FFF79BFD03469D
:10AE2000002B05D09A4BDB68994A23F08073D360DE
:10AE3000FFF7C4FD0346002B0ED04FF080430022E5
:10AE4000C3F80C214FF080430022C3F810214FF0CB
:10AE500080430022C3F83825FFF7F4FD0346002B9A
:10AE600002D08C4B03221A60FFF720FE0346002B12
:10AE70000BD0894B05221A60884B01221A60884B3F
:10AE800000221A60874B3F221A60FFF743FE0346F9
:10AE9000002B76D04FF08053834AD3F80434C2F8A5
:10AEA00020354FF08053804AD3F80834C2F8243557
:10AEB0004FF080537C4AD3F80C34C2F828354FF059
:10AEC0008053794AD3F81034C2F82C354FF08053B0
:10AED000754AD3F81434C2F830354FF08053724AB3
:10AEE000D3F81834C2F834354FF080536E4AD3F893
:10AEF0001C34C2F840354FF080536B4AD3F82034ED
:10AF0000C2F844354FF08053674AD3F82434C2F86E
:10AF100048354FF08053644AD3F82834C2F84C3592
:10AF20004FF08053604AD3F82C34C2F850354FF0BC
:10AF300080535D4AD3F83034C2F854354FF0805313
:10AF4000594AD3F83434C2F860354FF08053564A2A
:10AF5000D3F83834C2F864354FF08053524AD3F8EE
:10AF60003C34C2F868354FF080534F4AD3F8403430
:10AF7000C2F86C354FF080534B4AD3F84434C2F8D2
:10AF80007035FFF70BFE0346002B05D0474B1B68BF
:10AF9000474A03F04F031360FFF744FE0346002BBC
:10AFA0000DD04FF08043D3F8003403F00103002BA1
:10AFB00005D04FF080436FF00102C3F80024FFF783
:10AFC00075FE0346002B05D03A4B1B68394A43F403
:10AFD00080631360384BD3F88830374A43F47003EA
:10AFE000C2F88830BFF34F8F00BFBFF36F8F00BF31
:10AFF000FFF7BCFE4FF01023D3F80C3203F001032F
:10B00000012B13D10120FFF7CDFE4FF01023D3F811
:10B010000C324FF0102223F00103C2F80C32FFF77C
:10B02000B5FE0020FFF7BEFEFFF7C4FB4FF0102374
:10B03000D3F80032002B05DB4FF01023D3F8043295
:10B04000002B15DA0120FFF7ADFE4FF0102315227B
:10B05000C3F80022FFF79AFE4FF010231522C3F821
:10B060000422FFF793FE0020FFF79CFEFFF7A2FBF0
:10B07000FFF7A8FE00BF08BD2403001040350140C3
:10B0800074C007400DF0ADBA440200103C0500400A
:10B09000F0ED00E0A005004010560040885600404A
:10B0A000185600401456004000C0004058020010DE
:10B0B000E40E00403C17004000ED00E000B583B016
:10B0C0000190019B1B68184600F09DF80346002B79
:10B0D00004D105494FF4F67005F0F2F84FF0A043A3
:10B0E000184603B05DF804FBCC5E030000B585B0E4
:10B0F000019001AB1846FFF7E1FF0390019B01228D
:10B1000002FA03F31946039800F069F800BF05B08E
:10B110005DF804FB00B585B0019001AB1846FFF760
:10B12000CDFF0390019B012202FA03F31946039815
:10B1300000F05FF800BF05B05DF804FB00B585B016
:10B14000019001AB1846FFF7B9FF0390039BD3F8BA
:10B1500004350293029BDA43019B012101FA03F3B8
:10B160001A40039BC3F80825019B01229A40029BC9
:10B170001A40039BC3F80C2500BF05B05DF804FB23
:10B1800000B583B001900091009B002B03D1019882
:10B19000FFF7C0FF02E00198FFF7A8FF00BF03B070
:10B1A0005DF804FB00B585B0019001AB1846FFF7D0
:10B1B00085FF0390039800F00AF80246019B22FAEB
:10B1C00003F303F00103184605B05DF804FB82B0F9
:10B1D0000190019BD3F80435184602B0704782B045
:10B1E00001900091019B009AC3F8082500BF02B0AE
:10B1F000704782B001900091019B009AC3F80C2522
:10B2000000BF02B0704784B00190019B5B090293BC
:10B2100000230393029B002B03D14FF0FF330393D2
:10B2200000BF019B03F01F030193039A019B22FAC5
:10B2300003F303F00103002B14BF01230023DBB24F
:10B24000184604B07047000000B585B00190019B1E
:10B25000032B03D911493A2005F032F8104A019B1B
:10B2600013441B781846FFF79DFF0346002B14BFBD
:10B27000012300238DF80F309DF80F30002B14BFF1
:10B2800001230023DBB283F00103DBB203F00103EF
:10B29000DBB2184605B05DF804FB00BF285F030071
:10B2A000885F030000B583B00190019B032B03D995
:10B2B0000749412005F004F8064A019B13441B7816
:10B2C00000211846FFF75CFF00BF03B05DF804FBE8
:10B2D000285F0300885F030000B583B00190019BE5
:10B2E000032B03D90749472004F0EAFF064A019BD4
:10B2F00013441B7801211846FFF742FF00BF03B03B
:10B300005DF804FB285F0300885F030000B583B08D
:10B310000023019305E00198FFF7DEFF019B013355
:10B320000193019B032BF6D900BF00BF03B05DF86A
:10B3300004FB00B583B00023019305E00198FFF7FB
:10B34000B1FF019B01330193019B032BF6D900BF91
:10B3500000BF03B05DF804FB00B583B00190019B12
:10B36000032B03D907495F2004F0AAFF064A019B7B
:10B3700013441B781846FFF7E1FE00BF03B05DF8E9
:10B3800004FB00BF285F0300885F030000B583B0A3
:10B390000190019B032B03D90549CB2004F090FFBA
:10B3A000044A019B13441B78184603B05DF804FB64
:10B3B000285F03008C5F030082B003468DF80730DE
:10B3C0009DF90730002B13DB9DF8073003F01F02B7
:10B3D00009499DF907305B09012000FA02F2203388
:10B3E00041F82320BFF34F8F00BFBFF36F8F00BF23
:10B3F00000BF02B0704700BF00E100E0044BD3F88B
:10B400000034002B14BF01230023DBB21846704721
:10B410000000014008B509F00DF8034683F0010370
:10B42000DBB2002B03D109497B2004F049FFFFF771
:10B43000E5FF034683F00103DBB2002B04D000F0EC
:10B4400091FA034B00229A7000BF08BD985F030079
:10B450004442002000B583B000230193184B1B78B1
:10B46000002B02D0852301931CE0154B00229A602B
:10B47000134B00225A60124B00221A61104B00221B
:10B48000DA60104800F034FA019008F0D3FF034668
:10B4900083F00103DBB2002B01D000F04FFA084B20
:10B4A00001221A70FFF7AAFF0346002B02D0044BBB
:10B4B00001229A70019B184603B05DF804FB00BF9F
:10B4C000444200209DB5020084B00190019B1B689E
:10B4D0000393039B002B03D0039B1A68019B1A6004
:10B4E000039B184604B0704700B583B0164B1B7819
:10B4F000002B04D1154940F2171004F0E1FE124B65
:10B50000DB68002B04D111494FF48C7004F0D8FE95
:10B5100000238DF807300DF107031846FCF7C6FD30
:10B52000094BDB68013B084AD360074BDB68002B03
:10B5300001D1FFF76FFF9DF807301846FCF7CCFDEF
:10B5400000BF03B05DF804FB44420020985F030095
:10B5500000B585B003468DF807309DF80730002B05
:10B5600002D10C4B039301E00B4B03930398FFF7BD
:10B57000ABFF0290029B002B06D0029B5B689DF8FC
:10B58000072010469847F1E700BF00BF05B05DF8FF
:10B5900004FB00BF4C4200205442002000B583B0A1
:10B5A00003468DF807309DF80730002B05D10A4B74
:10B5B00001225A700020FFF7CBFF9DF80730012BC6
:10B5C00005D1054B01229A700120FFF7C1FF00BF92
:10B5D00003B05DF804FB00BF4442002000B583B017
:10B5E00001900091019B002B05D1054B01225A705F
:10B5F0000020FFF7ADFF00BF03B05DF804FB00BF04
:10B600004442002000B585B0034600918DF8073014
:10B610009DF80730032B29D0032B35DC002B02D0FB
:10B62000012B04D030E00020FFF7C6FE2DE0002300
:10B630008DF80F300DF10F031846FCF737FD154B51
:10B640001B7883F00103DBB2002B01D0FFF702FF70
:10B65000104BDB6801330F4AD3600E4B01229A7006
:10B660009DF80F301846FCF737FD0EE0094B1B78AC
:10B67000002B04D1084940F2522004F021FE00F0D2
:10B680005DF9FFF731FF00E000BF00BF05B05DF8D6
:10B6900004FB00BF44420020985F030082B00346D1
:10B6A0008DF807309DF90730002B0CDB9DF8073033
:10B6B00003F01F0205499DF907305B09012000FADC
:10B6C00002F241F8232000BF02B0704700E100E021
:10B6D00082B0034600918DF807309DF90730002BAA
:10B6E0000ADB009BDAB20C499DF907305201D2B255
:10B6F0000B4483F800230BE0009BDAB207499DF866
:10B70000073003F00F03043B5201D2B20B441A7608
:10B7100000BF02B0704700BF00E100E000ED00E0B4
:10B7200082B00190019B1B0B5BB2184602B07047C0
:10B7300000B583B003460A468DF8073013468DF8EE
:10B7400006309DF80630012B03D99DF80630032BF7
:10B750000BD99DF80630042B03D99DF80630072B32
:10B7600003D908496B2004F0ABFD9DF806209DF934
:10B77000073011461846FFF7ABFF00BF03B05DF876
:10B7800004FB00BF0460030000B583B003468DF8DE
:10B7900007309DF907301846FFF780FF00BF03B060
:10B7A0005DF804FB82B003468DF807300F4A9DF91F
:10B7B0000730002B00DA1F335B115BB252F82320F5
:10B7C0009DF90730594203F01F0301F01F0158BFD4
:10B7D0004B425BB222FA03F303F00103002B14BFC8
:10B7E00001230023DBB2184602B0704700E100E0FD
:10B7F00082B001904FF08042019BC2F8083300BF35
:10B8000002B0704782B003468DF807309DF80730CC
:10B8100003F1804301221A6000BF02B0704784B078
:10B820000346ADF80630BDF8063003F18043002230
:10B830001A60BDF8063003F180431B680393039B35
:10B8400000BF04B0704782B00346ADF80630BDF8C3
:10B85000063003F180431B68002B14BF0123002333
:10B86000DBB2184602B0704782B001904FF08042C0
:10B87000019BC2F8183500BF02B070474FF08043FB
:10B88000D3F818341B0C03F00103002B14BF012361
:10B890000023DBB21846704700B583B006238DF84D
:10B8A00007304FF08040FFF73BFF03461846FFF795
:10B8B00079FF034683F00103DBB2002B13D04FF076
:10B8C0008040FFF72DFF03461A469DF807301946C2
:10B8D0001046FFF72DFF4FF08040FFF721FF034692
:10B8E0001846FFF751FF00BF03B05DF804FB0000EE
:10B8F00000B585B00190019B002B03D10D49A42018
:10B9000004F0DEFC002303930B4B1B79002B02D0C9
:10B910008523039308E0084A019B1360064B01222C
:10B920001A71054B00225A71039B184605B05DF849
:10B9300004FB00BF686003005842002008B5074BB5
:10B940001B79002B03D10649BD2004F0B9FCFFF799
:10B95000A3FF0120FFF788FF00BF08BD5842002069
:10B960006860030008B50D4B1B79002B03D10C490F
:10B97000F72004F0A5FC0220FFF73AFF4FF4827095
:10B98000FFF74DFF0C20FFF73DFF00BFFFF776FFED
:10B990000346002BFAD100BF00BF08BD584200206B
:10B9A0006860030008B54FF48070FFF74CFF034652
:10B9B000002B14D04FF48070FFF731FF0120FFF708
:10B9C00017FF114B5B7983F00103DBB2002B06D02C
:10B9D0000D4B01225A710C4B1B68002098474FF405
:10B9E0008270FFF730FF0346002B0AD04FF48270BD
:10B9F000FFF715FF0220FFF7FBFE034B1B6801203A
:10BA0000984700BF08BD00BF5842002082B00346DF
:10BA10008DF807309DF90730002B0CDB9DF80730BF
:10BA200003F01F0205499DF907305B09012000FA68
:10BA300002F241F8232000BF02B0704700E100E0AD
:10BA400082B0034600918DF807309DF90730002B36
:10BA50000ADB009BDAB20C499DF907305201D2B2E1
:10BA60000B4483F800230BE0009BDAB207499DF8F2
:10BA7000073003F00F03043B5201D2B20B441A7695
:10BA800000BF02B0704700BF00E100E000ED00E041
:10BA900082B00190019B1B0B5BB2184602B070474D
:10BAA00000B583B003460A468DF8073013468DF87B
:10BAB00006309DF80630012B03D99DF80630032B84
:10BAC0000BD99DF80630042B03D99DF80630072BBF
:10BAD00003D908496B2004F0F3FB9DF806209DF97B
